{
  "_format": "hh-sol-artifact-1",
  "contractName": "Campaign",
  "sourceName": "contracts/Campaign.sol",
  "abi": [
    {
      "inputs": [],
      "stateMutability": "nonpayable",
      "type": "constructor"
    },
    {
      "anonymous": false,
      "inputs": [
        {
          "indexed": false,
          "internalType": "uint256",
          "name": "campaignId",
          "type": "uint256"
        },
        {
          "indexed": false,
          "internalType": "address",
          "name": "attendee",
          "type": "address"
        },
        {
          "indexed": false,
          "internalType": "address",
          "name": "referrer",
          "type": "address"
        }
      ],
      "name": "CampaignCheckedIn",
      "type": "event"
    },
    {
      "anonymous": false,
      "inputs": [
        {
          "indexed": false,
          "internalType": "uint256",
          "name": "campaignId",
          "type": "uint256"
        }
      ],
      "name": "CampaignCreated",
      "type": "event"
    },
    {
      "anonymous": false,
      "inputs": [
        {
          "indexed": false,
          "internalType": "uint256",
          "name": "campaignId",
          "type": "uint256"
        },
        {
          "indexed": false,
          "internalType": "uint256",
          "name": "balance",
          "type": "uint256"
        }
      ],
      "name": "CampaignEnded",
      "type": "event"
    },
    {
      "inputs": [
        {
          "internalType": "uint256",
          "name": "",
          "type": "uint256"
        }
      ],
      "name": "campaigns",
      "outputs": [
        {
          "internalType": "string",
          "name": "cid",
          "type": "string"
        },
        {
          "internalType": "uint256",
          "name": "deposit",
          "type": "uint256"
        },
        {
          "internalType": "bool",
          "name": "ended",
          "type": "bool"
        },
        {
          "internalType": "uint256",
          "name": "balance",
          "type": "uint256"
        },
        {
          "internalType": "uint256",
          "name": "rewardAmount",
          "type": "uint256"
        }
      ],
      "stateMutability": "view",
      "type": "function"
    },
    {
      "inputs": [
        {
          "internalType": "uint256",
          "name": "_campaignId",
          "type": "uint256"
        },
        {
          "internalType": "uint256",
          "name": "_referralPoapTokenId",
          "type": "uint256"
        }
      ],
      "name": "checkIn",
      "outputs": [],
      "stateMutability": "nonpayable",
      "type": "function"
    },
    {
      "inputs": [
        {
          "internalType": "string",
          "name": "_cid",
          "type": "string"
        },
        {
          "internalType": "uint256",
          "name": "_deposit",
          "type": "uint256"
        },
        {
          "internalType": "uint256",
          "name": "_rewardAmount",
          "type": "uint256"
        }
      ],
      "name": "createCampaign",
      "outputs": [
        {
          "internalType": "uint256",
          "name": "",
          "type": "uint256"
        }
      ],
      "stateMutability": "payable",
      "type": "function"
    },
    {
      "inputs": [
        {
          "internalType": "uint256",
          "name": "_campaignId",
          "type": "uint256"
        }
      ],
      "name": "endCampaign",
      "outputs": [],
      "stateMutability": "nonpayable",
      "type": "function"
    },
    {
      "inputs": [],
      "name": "getAllCampaigns",
      "outputs": [
        {
          "components": [
            {
              "internalType": "string",
              "name": "cid",
              "type": "string"
            },
            {
              "internalType": "uint256",
              "name": "deposit",
              "type": "uint256"
            },
            {
              "internalType": "bool",
              "name": "ended",
              "type": "bool"
            },
            {
              "internalType": "uint256",
              "name": "balance",
              "type": "uint256"
            },
            {
              "internalType": "uint256",
              "name": "rewardAmount",
              "type": "uint256"
            },
            {
              "internalType": "uint256[]",
              "name": "poapTokenIds",
              "type": "uint256[]"
            },
            {
              "internalType": "address[]",
              "name": "checkIns",
              "type": "address[]"
            }
          ],
          "internalType": "struct Campaign.CampaignInfo[]",
          "name": "",
          "type": "tuple[]"
        }
      ],
      "stateMutability": "view",
      "type": "function"
    },
    {
      "inputs": [],
      "name": "l2BSTToken",
      "outputs": [
        {
          "internalType": "contract L2BSTToken",
          "name": "",
          "type": "address"
        }
      ],
      "stateMutability": "view",
      "type": "function"
    },
    {
      "inputs": [],
      "name": "owner",
      "outputs": [
        {
          "internalType": "address",
          "name": "",
          "type": "address"
        }
      ],
      "stateMutability": "view",
      "type": "function"
    },
    {
      "inputs": [],
      "name": "poapNft",
      "outputs": [
        {
          "internalType": "contract PoapNFT",
          "name": "",
          "type": "address"
        }
      ],
      "stateMutability": "view",
      "type": "function"
    },
    {
      "inputs": [
        {
          "internalType": "uint256",
          "name": "",
          "type": "uint256"
        }
      ],
      "name": "poapNftOwners",
      "outputs": [
        {
          "internalType": "address",
          "name": "",
          "type": "address"
        }
      ],
      "stateMutability": "view",
      "type": "function"
    },
    {
      "inputs": [
        {
          "internalType": "uint256",
          "name": "",
          "type": "uint256"
        }
      ],
      "name": "poapNftReferralCounts",
      "outputs": [
        {
          "internalType": "uint256",
          "name": "",
          "type": "uint256"
        }
      ],
      "stateMutability": "view",
      "type": "function"
    }
  ],
  "bytecode": "0x608060405234801561001057600080fd5b50600080546001600160a01b0319908116736280b9b5aac7851ef857884b50b86129809af7ab179091556002805482163317905560018054909116732c668a20c78bb3e484e903450abfea8af917f760179055611acf806100726000396000f3fe6080604052600436106100905760003560e01c806386cdf6041161005957806386cdf604146101875780638da5cb5b146101a9578063dd0408ae146101c9578063f516f88e146101eb578063ffcc3aa31461020b57600080fd5b8062fbdc1e14610095578063141961bc146100e8578063213e162e146101195780632a2d7417146101545780633020580b14610174575b600080fd5b3480156100a157600080fd5b506100cb6100b0366004611618565b6004602052600090815260409020546001600160a01b031681565b6040516001600160a01b0390911681526020015b60405180910390f35b3480156100f457600080fd5b50610108610103366004611618565b61022b565b6040516100df95949392919061167e565b34801561012557600080fd5b50610146610134366004611618565b60056020526000908152604090205481565b6040519081526020016100df565b34801561016057600080fd5b506000546100cb906001600160a01b031681565b6101466101823660046116cb565b6102fe565b34801561019357600080fd5b5061019c6106f4565b6040516100df91906117d3565b3480156101b557600080fd5b506002546100cb906001600160a01b031681565b3480156101d557600080fd5b506101e96101e4366004611618565b6108d8565b005b3480156101f757600080fd5b506101e96102063660046118c9565b610b38565b34801561021757600080fd5b506001546100cb906001600160a01b031681565b6003818154811061023b57600080fd5b906000526020600020906007020160009150905080600001805461025e906118eb565b80601f016020809104026020016040519081016040528092919081815260200182805461028a906118eb565b80156102d75780601f106102ac576101008083540402835291602001916102d7565b820191906000526020600020905b8154815290600101906020018083116102ba57829003601f168201915b505050506001830154600284015460038501546004909501549394919360ff909116925085565b60008082116103605760405162461bcd60e51b8152602060048201526024808201527f52657761726420616d6f756e74206d75737420626520677265617465722074686044820152630616e20360e41b60648201526084015b60405180910390fd5b818310156103cf5760405162461bcd60e51b815260206004820152603660248201527f4465706f736974206d7573742062652067726561746572207468616e206f7220604482015275195c5d585b081d1bc81c995dd85c9908185b5bdd5b9d60521b6064820152608401610357565b6000546040516370a0823160e01b815233600482015284916001600160a01b0316906370a082319060240160206040518083038186803b15801561041257600080fd5b505afa158015610426573d6000803e3d6000fd5b505050506040513d601f19601f8201168201806040525081019061044a9190611926565b10156104a85760405162461bcd60e51b815260206004820152602760248201527f496e73756666696369656e742062616c616e636520746f20637265617465206360448201526630b6b830b4b3b760c91b6064820152608401610357565b6000546040516323b872dd60e01b8152336004820152306024820152604481018590526001600160a01b03909116906323b872dd90606401602060405180830381600087803b1580156104fa57600080fd5b505af115801561050e573d6000803e3d6000fd5b505050506040513d601f19601f82011682018060405250810190610532919061193f565b6105955760405162461bcd60e51b815260206004820152602e60248201527f4661696c656420746f207472616e7366657220746f6b656e7320746f2063616d60448201526d1c185a59db8818dbdb9d1c9858dd60921b6064820152608401610357565b6040805160e0810182528581526020808201869052600082840181905260608301879052608083018690528351818152808301855260a0840152835181815280830190945260c0830193909352600380546001810182559352815180519293849360079091027fc2575a0e9e593c00f959f8c92f12db2869c3395a3b0502d05e2516446f71f85b019261062c9284929101906114f0565b506020828101516001830155604083015160028301805460ff1916911515919091179055606083015160038301556080830151600483015560a0830151805161067b9260058501920190611574565b5060c082015180516106979160068401916020909101906115ae565b50506003547fbc0a5edd152fa5b886dcae82c5c109d113708653b4b9c0224549ccdf715af94e91506106cb90600190611977565b60405190815260200160405180910390a16003546106eb90600190611977565b95945050505050565b60606003805480602002602001604051908101604052809291908181526020016000905b828210156108cf57838290600052602060002090600702016040518060e001604052908160008201805461074b906118eb565b80601f0160208091040260200160405190810160405280929190818152602001828054610777906118eb565b80156107c45780601f10610799576101008083540402835291602001916107c4565b820191906000526020600020905b8154815290600101906020018083116107a757829003601f168201915b50505050508152602001600182015481526020016002820160009054906101000a900460ff1615151515815260200160038201548152602001600482015481526020016005820180548060200260200160405190810160405280929190818152602001828054801561085557602002820191906000526020600020905b815481526020019060010190808311610841575b50505050508152602001600682018054806020026020016040519081016040528092919081815260200182805480156108b757602002820191906000526020600020905b81546001600160a01b03168152600190910190602001808311610899575b50505050508152505081526020019060010190610718565b50505050905090565b6002546001600160a01b031633146109325760405162461bcd60e51b815260206004820152601b60248201527f4f6e6c79206f776e65722063616e20656e642063616d706169676e00000000006044820152606401610357565b600381815481106109455761094561198e565b600091825260209091206002600790920201015460ff16156109a95760405162461bcd60e51b815260206004820152601a60248201527f43616d706169676e2068617320616c726561647920656e6465640000000000006044820152606401610357565b6001600382815481106109be576109be61198e565b60009182526020822060079190910201600201805460ff19169215159290921790915560038054839081106109f5576109f561198e565b90600052602060002090600702016003015490506000811115610afb5760005460025460405163a9059cbb60e01b81526001600160a01b0391821660048201526024810184905291169063a9059cbb90604401602060405180830381600087803b158015610a6257600080fd5b505af1158015610a76573d6000803e3d6000fd5b505050506040513d601f19601f82011682018060405250810190610a9a919061193f565b610afb5760405162461bcd60e51b815260206004820152602c60248201527f4661696c656420746f207472616e736665722072656d61696e696e6720746f6b60448201526b32b739903a379037bbb732b960a11b6064820152608401610357565b60408051838152602081018390527f5a31f5edca5237d41a024875db1596a0ffd609862996afb3af78403ff8122b4f910160405180910390a15050565b60038281548110610b4b57610b4b61198e565b600091825260209091206002600790920201015460ff1615610ba85760405162461bcd60e51b8152602060048201526016602482015275151a194818d85b5c185a59db881a185cc8195b99195960521b6044820152606401610357565b336000805b60038581548110610bc057610bc061198e565b906000526020600020906007020160060180549050811015610c5157826001600160a01b031660038681548110610bf957610bf961198e565b90600052602060002090600702016006018281548110610c1b57610c1b61198e565b6000918252602090912001546001600160a01b03161415610c3f5760019150610c51565b80610c49816119a4565b915050610bad565b508015610ca05760405162461bcd60e51b815260206004820152601b60248201527f596f75206861766520616c726561647920636865636b656420696e00000000006044820152606401610357565b82610e33576001546040805163846d299360e01b815290516000926001600160a01b03169163846d2993916004808301926020929190829003018186803b158015610cea57600080fd5b505afa158015610cfe573d6000803e3d6000fd5b505050506040513d601f19601f82011682018060405250810190610d229190611926565b90506000610d318260016114dd565b9050600160009054906101000a90046001600160a01b03166001600160a01b031663d3fc9864858360038a81548110610d6c57610d6c61198e565b90600052602060002090600702016000016040518463ffffffff1660e01b8152600401610d9b939291906119bf565b600060405180830381600087803b158015610db557600080fd5b505af1158015610dc9573d6000803e3d6000fd5b5050505060038681548110610de057610de061198e565b6000918252602080832060079290920290910160050180546001810182559083528183200183905591815260049091526040902080546001600160a01b0319166001600160a01b038516179055506112b2565b6000838152600460205260409020546001600160a01b0316610e975760405162461bcd60e51b815260206004820152601960248201527f496e76616c696420726566657272657220746f6b656e204944000000000000006044820152606401610357565b6001546040805163846d299360e01b815290516000926001600160a01b03169163846d2993916004808301926020929190829003018186803b158015610edc57600080fd5b505afa158015610ef0573d6000803e3d6000fd5b505050506040513d601f19601f82011682018060405250810190610f149190611926565b90506000610f238260016114dd565b9050600160009054906101000a90046001600160a01b03166001600160a01b031663d3fc9864858360038a81548110610f5e57610f5e61198e565b90600052602060002090600702016000016040518463ffffffff1660e01b8152600401610f8d939291906119bf565b600060405180830381600087803b158015610fa757600080fd5b505af1158015610fbb573d6000803e3d6000fd5b5050505060038681548110610fd257610fd261198e565b6000918252602080832060079290920290910160050180546001810182559083528183200183905582825260049052604080822080546001600160a01b0319166001600160a01b0388811691909117909155878352908220546003805491909216929190899081106110465761104661198e565b60009182526020822060046007929092020181015491546040516370a0823160e01b8152309281019290925291925082916001600160a01b0316906370a082319060240160206040518083038186803b1580156110a257600080fd5b505afa1580156110b6573d6000803e3d6000fd5b505050506040513d601f19601f820116820180604052508101906110da9190611926565b10156111335760405162461bcd60e51b815260206004820152602260248201527f4e6f7420656e6f7567682072657761726420746f6b656e7320617661696c61626044820152616c6560f01b6064820152608401610357565b60005460405163a9059cbb60e01b81526001600160a01b038481166004830152602482018490529091169063a9059cbb90604401602060405180830381600087803b15801561118157600080fd5b505af1158015611195573d6000803e3d6000fd5b505050506040513d601f19601f820116820180604052508101906111b9919061193f565b61121a5760405162461bcd60e51b815260206004820152602c60248201527f4661696c656420746f207472616e736665722072657761726420746f6b656e7360448201526b103a37903932b332b93932b960a11b6064820152608401610357565b600087815260056020526040812054611234906001611a81565b600089815260056020526040908190208290556001549051633fd659ed60e11b8152600481018b9052602481018390529192506001600160a01b031690637facb3da90604401600060405180830381600087803b15801561129457600080fd5b505af11580156112a8573d6000803e3d6000fd5b5050505050505050505b600384815481106112c5576112c561198e565b60009182526020808320600792909202909101600601805460018101825590835291200180546001600160a01b0319166001600160a01b03841617905560038054859081106113165761131661198e565b9060005260206000209060070201600301546000141561144057600254600380546001600160a01b039092169182916108fc91889081106113595761135961198e565b9060005260206000209060070201600101549081150290604051600060405180830381858888f19350505050158015611396573d6000803e3d6000fd5b506001600386815481106113ac576113ac61198e565b906000526020600020906007020160020160006101000a81548160ff0219169083151502179055507f5a31f5edca5237d41a024875db1596a0ffd609862996afb3af78403ff8122b4f85600387815481106114095761140961198e565b906000526020600020906007020160030154604051611432929190918252602082015260400190565b60405180910390a15061147b565b6001600385815481106114555761145561198e565b906000526020600020906007020160030160008282546114759190611977565b90915550505b6000838152600460209081526040918290205482518781526001600160a01b038681169382019390935291168183015290517f2f71e641069baed1d7be74a43035dc5a43b192d46e5124f7bb585b292c241aad9181900360600190a150505050565b60006114e98284611a81565b9392505050565b8280546114fc906118eb565b90600052602060002090601f01602090048101928261151e5760008555611564565b82601f1061153757805160ff1916838001178555611564565b82800160010185558215611564579182015b82811115611564578251825591602001919060010190611549565b50611570929150611603565b5090565b8280548282559060005260206000209081019282156115645791602002820182811115611564578251825591602001919060010190611549565b828054828255906000526020600020908101928215611564579160200282015b8281111561156457825182546001600160a01b0319166001600160a01b039091161782556020909201916001909101906115ce565b5b808211156115705760008155600101611604565b60006020828403121561162a57600080fd5b5035919050565b6000815180845260005b818110156116575760208185018101518683018201520161163b565b81811115611669576000602083870101525b50601f01601f19169290920160200192915050565b60a08152600061169160a0830188611631565b60208301969096525092151560408401526060830191909152608090910152919050565b634e487b7160e01b600052604160045260246000fd5b6000806000606084860312156116e057600080fd5b833567ffffffffffffffff808211156116f857600080fd5b818601915086601f83011261170c57600080fd5b81358181111561171e5761171e6116b5565b604051601f8201601f19908116603f01168101908382118183101715611746576117466116b5565b8160405282815289602084870101111561175f57600080fd5b82602086016020830137600060208483010152809750505050505060208401359150604084013590509250925092565b600081518084526020808501945080840160005b838110156117c85781516001600160a01b0316875295820195908201906001016117a3565b509495945050505050565b60006020808301818452808551808352604092508286019150828160051b8701018488016000805b848110156118ba57603f198a8503018652825160e0815181875261182182880182611631565b838c0151888d01528a84015115158b890152606080850151908901526080808501519089015260a080850151898303918a01919091528051808352908d019350908c01915085905b808210156118895783518352928c0192918c019160019190910190611869565b505060c092830151878203888501529291506118a5818461178f565b988b01989650505092880192506001016117fb565b50919998505050505050505050565b600080604083850312156118dc57600080fd5b50508035926020909101359150565b600181811c908216806118ff57607f821691505b6020821081141561192057634e487b7160e01b600052602260045260246000fd5b50919050565b60006020828403121561193857600080fd5b5051919050565b60006020828403121561195157600080fd5b815180151581146114e957600080fd5b634e487b7160e01b600052601160045260246000fd5b60008282101561198957611989611961565b500390565b634e487b7160e01b600052603260045260246000fd5b60006000198214156119b8576119b8611961565b5060010190565b6001600160a01b03841681526020808201849052606060408301528254600091908290600181811c90828116806119f757607f831692505b858310811415611a1557634e487b7160e01b85526022600452602485fd5b6060880183905260808801818015611a345760018114611a4557611a70565b60ff19861682528782019650611a70565b60008b81526020902060005b86811015611a6a57815484820152908501908901611a51565b83019750505b50949b9a5050505050505050505050565b60008219821115611a9457611a94611961565b50019056fea26469706673582212204eea90b67830471ff75aa2c450b0b2c36897f2bc95df01f259ca7682699b6c1964736f6c63430008090033",
  "linkReferences": {},
  "deployedLinkReferences": {}
}