{
  "_format": "hh-sol-artifact-1",
  "contractName": "Campaign",
  "sourceName": "contracts/Campaign.sol",
  "abi": [
    {
      "inputs": [],
      "stateMutability": "nonpayable",
      "type": "constructor"
    },
    {
      "anonymous": false,
      "inputs": [
        {
          "indexed": false,
          "internalType": "uint256",
          "name": "campaignId",
          "type": "uint256"
        },
        {
          "indexed": false,
          "internalType": "address",
          "name": "attendee",
          "type": "address"
        },
        {
          "indexed": false,
          "internalType": "address",
          "name": "referrer",
          "type": "address"
        }
      ],
      "name": "CampaignCheckedIn",
      "type": "event"
    },
    {
      "anonymous": false,
      "inputs": [
        {
          "indexed": false,
          "internalType": "uint256",
          "name": "campaignId",
          "type": "uint256"
        }
      ],
      "name": "CampaignCreated",
      "type": "event"
    },
    {
      "anonymous": false,
      "inputs": [
        {
          "indexed": false,
          "internalType": "uint256",
          "name": "campaignId",
          "type": "uint256"
        },
        {
          "indexed": false,
          "internalType": "uint256",
          "name": "balance",
          "type": "uint256"
        }
      ],
      "name": "CampaignEnded",
      "type": "event"
    },
    {
      "inputs": [
        {
          "internalType": "uint256",
          "name": "",
          "type": "uint256"
        }
      ],
      "name": "campaigns",
      "outputs": [
        {
          "internalType": "string",
          "name": "cid",
          "type": "string"
        },
        {
          "internalType": "uint256",
          "name": "deposit",
          "type": "uint256"
        },
        {
          "internalType": "bool",
          "name": "ended",
          "type": "bool"
        },
        {
          "internalType": "uint256",
          "name": "balance",
          "type": "uint256"
        },
        {
          "internalType": "uint256",
          "name": "rewardAmount",
          "type": "uint256"
        }
      ],
      "stateMutability": "view",
      "type": "function"
    },
    {
      "inputs": [
        {
          "internalType": "uint256",
          "name": "_campaignId",
          "type": "uint256"
        },
        {
          "internalType": "uint256",
          "name": "_referralPoapTokenId",
          "type": "uint256"
        }
      ],
      "name": "checkIn",
      "outputs": [],
      "stateMutability": "nonpayable",
      "type": "function"
    },
    {
      "inputs": [
        {
          "internalType": "string",
          "name": "_cid",
          "type": "string"
        },
        {
          "internalType": "uint256",
          "name": "_deposit",
          "type": "uint256"
        },
        {
          "internalType": "uint256",
          "name": "_rewardAmount",
          "type": "uint256"
        }
      ],
      "name": "createCampaign",
      "outputs": [
        {
          "internalType": "uint256",
          "name": "",
          "type": "uint256"
        }
      ],
      "stateMutability": "payable",
      "type": "function"
    },
    {
      "inputs": [
        {
          "internalType": "uint256",
          "name": "_campaignId",
          "type": "uint256"
        }
      ],
      "name": "endCampaign",
      "outputs": [],
      "stateMutability": "nonpayable",
      "type": "function"
    },
    {
      "inputs": [],
      "name": "getAllCampaigns",
      "outputs": [
        {
          "components": [
            {
              "internalType": "string",
              "name": "cid",
              "type": "string"
            },
            {
              "internalType": "uint256",
              "name": "deposit",
              "type": "uint256"
            },
            {
              "internalType": "bool",
              "name": "ended",
              "type": "bool"
            },
            {
              "internalType": "uint256",
              "name": "balance",
              "type": "uint256"
            },
            {
              "internalType": "uint256",
              "name": "rewardAmount",
              "type": "uint256"
            },
            {
              "internalType": "uint256[]",
              "name": "poapTokenIds",
              "type": "uint256[]"
            },
            {
              "internalType": "address[]",
              "name": "checkIns",
              "type": "address[]"
            }
          ],
          "internalType": "struct Campaign.CampaignInfo[]",
          "name": "",
          "type": "tuple[]"
        }
      ],
      "stateMutability": "view",
      "type": "function"
    },
    {
      "inputs": [],
      "name": "l2BSTToken",
      "outputs": [
        {
          "internalType": "contract L2BSTToken",
          "name": "",
          "type": "address"
        }
      ],
      "stateMutability": "view",
      "type": "function"
    },
    {
      "inputs": [],
      "name": "owner",
      "outputs": [
        {
          "internalType": "address",
          "name": "",
          "type": "address"
        }
      ],
      "stateMutability": "view",
      "type": "function"
    },
    {
      "inputs": [],
      "name": "poapNft",
      "outputs": [
        {
          "internalType": "contract PoapNFT",
          "name": "",
          "type": "address"
        }
      ],
      "stateMutability": "view",
      "type": "function"
    },
    {
      "inputs": [
        {
          "internalType": "uint256",
          "name": "",
          "type": "uint256"
        }
      ],
      "name": "poapNftOwners",
      "outputs": [
        {
          "internalType": "address",
          "name": "",
          "type": "address"
        }
      ],
      "stateMutability": "view",
      "type": "function"
    },
    {
      "inputs": [
        {
          "internalType": "uint256",
          "name": "",
          "type": "uint256"
        }
      ],
      "name": "poapNftReferralCounts",
      "outputs": [
        {
          "internalType": "uint256",
          "name": "",
          "type": "uint256"
        }
      ],
      "stateMutability": "view",
      "type": "function"
    }
  ],
  "bytecode": "0x608060405234801561001057600080fd5b50600080546001600160a01b0319908116736280b9b5aac7851ef857884b50b86129809af7ab179091556002805482163317905560018054909116738faeccc73e720edaf5da087eb075484f0e1101a6179055611ab9806100726000396000f3fe6080604052600436106100905760003560e01c806386cdf6041161005957806386cdf604146101875780638da5cb5b146101a9578063dd0408ae146101c9578063f516f88e146101eb578063ffcc3aa31461020b57600080fd5b8062fbdc1e14610095578063141961bc146100e8578063213e162e146101195780632a2d7417146101545780633020580b14610174575b600080fd5b3480156100a157600080fd5b506100cb6100b03660046115fb565b6004602052600090815260409020546001600160a01b031681565b6040516001600160a01b0390911681526020015b60405180910390f35b3480156100f457600080fd5b506101086101033660046115fb565b61022b565b6040516100df959493929190611661565b34801561012557600080fd5b506101466101343660046115fb565b60056020526000908152604090205481565b6040519081526020016100df565b34801561016057600080fd5b506000546100cb906001600160a01b031681565b6101466101823660046116ae565b6102fe565b34801561019357600080fd5b5061019c6106f4565b6040516100df91906117b6565b3480156101b557600080fd5b506002546100cb906001600160a01b031681565b3480156101d557600080fd5b506101e96101e43660046115fb565b6108d8565b005b3480156101f757600080fd5b506101e96102063660046118ac565b610b38565b34801561021757600080fd5b506001546100cb906001600160a01b031681565b6003818154811061023b57600080fd5b906000526020600020906007020160009150905080600001805461025e906118ce565b80601f016020809104026020016040519081016040528092919081815260200182805461028a906118ce565b80156102d75780601f106102ac576101008083540402835291602001916102d7565b820191906000526020600020905b8154815290600101906020018083116102ba57829003601f168201915b505050506001830154600284015460038501546004909501549394919360ff909116925085565b60008082116103605760405162461bcd60e51b8152602060048201526024808201527f52657761726420616d6f756e74206d75737420626520677265617465722074686044820152630616e20360e41b60648201526084015b60405180910390fd5b818310156103cf5760405162461bcd60e51b815260206004820152603660248201527f4465706f736974206d7573742062652067726561746572207468616e206f7220604482015275195c5d585b081d1bc81c995dd85c9908185b5bdd5b9d60521b6064820152608401610357565b6000546040516370a0823160e01b815233600482015284916001600160a01b0316906370a082319060240160206040518083038186803b15801561041257600080fd5b505afa158015610426573d6000803e3d6000fd5b505050506040513d601f19601f8201168201806040525081019061044a9190611909565b10156104a85760405162461bcd60e51b815260206004820152602760248201527f496e73756666696369656e742062616c616e636520746f20637265617465206360448201526630b6b830b4b3b760c91b6064820152608401610357565b6000546040516323b872dd60e01b8152336004820152306024820152604481018590526001600160a01b03909116906323b872dd90606401602060405180830381600087803b1580156104fa57600080fd5b505af115801561050e573d6000803e3d6000fd5b505050506040513d601f19601f820116820180604052508101906105329190611922565b6105955760405162461bcd60e51b815260206004820152602e60248201527f4661696c656420746f207472616e7366657220746f6b656e7320746f2063616d60448201526d1c185a59db8818dbdb9d1c9858dd60921b6064820152608401610357565b6040805160e0810182528581526020808201869052600082840181905260608301879052608083018690528351818152808301855260a0840152835181815280830190945260c0830193909352600380546001810182559352815180519293849360079091027fc2575a0e9e593c00f959f8c92f12db2869c3395a3b0502d05e2516446f71f85b019261062c9284929101906114d3565b506020828101516001830155604083015160028301805460ff1916911515919091179055606083015160038301556080830151600483015560a0830151805161067b9260058501920190611557565b5060c08201518051610697916006840191602090910190611591565b50506003547fbc0a5edd152fa5b886dcae82c5c109d113708653b4b9c0224549ccdf715af94e91506106cb90600190611961565b60405190815260200160405180910390a16003546106eb90600190611961565b95945050505050565b60606003805480602002602001604051908101604052809291908181526020016000905b828210156108cf57838290600052602060002090600702016040518060e001604052908160008201805461074b906118ce565b80601f0160208091040260200160405190810160405280929190818152602001828054610777906118ce565b80156107c45780601f10610799576101008083540402835291602001916107c4565b820191906000526020600020905b8154815290600101906020018083116107a757829003601f168201915b50505050508152602001600182015481526020016002820160009054906101000a900460ff1615151515815260200160038201548152602001600482015481526020016005820180548060200260200160405190810160405280929190818152602001828054801561085557602002820191906000526020600020905b815481526020019060010190808311610841575b50505050508152602001600682018054806020026020016040519081016040528092919081815260200182805480156108b757602002820191906000526020600020905b81546001600160a01b03168152600190910190602001808311610899575b50505050508152505081526020019060010190610718565b50505050905090565b6002546001600160a01b031633146109325760405162461bcd60e51b815260206004820152601b60248201527f4f6e6c79206f776e65722063616e20656e642063616d706169676e00000000006044820152606401610357565b6003818154811061094557610945611978565b600091825260209091206002600790920201015460ff16156109a95760405162461bcd60e51b815260206004820152601a60248201527f43616d706169676e2068617320616c726561647920656e6465640000000000006044820152606401610357565b6001600382815481106109be576109be611978565b60009182526020822060079190910201600201805460ff19169215159290921790915560038054839081106109f5576109f5611978565b90600052602060002090600702016003015490506000811115610afb5760005460025460405163a9059cbb60e01b81526001600160a01b0391821660048201526024810184905291169063a9059cbb90604401602060405180830381600087803b158015610a6257600080fd5b505af1158015610a76573d6000803e3d6000fd5b505050506040513d601f19601f82011682018060405250810190610a9a9190611922565b610afb5760405162461bcd60e51b815260206004820152602c60248201527f4661696c656420746f207472616e736665722072656d61696e696e6720746f6b60448201526b32b739903a379037bbb732b960a11b6064820152608401610357565b60408051838152602081018390527f5a31f5edca5237d41a024875db1596a0ffd609862996afb3af78403ff8122b4f910160405180910390a15050565b60038281548110610b4b57610b4b611978565b600091825260209091206002600790920201015460ff1615610ba85760405162461bcd60e51b8152602060048201526016602482015275151a194818d85b5c185a59db881a185cc8195b99195960521b6044820152606401610357565b336000805b60038581548110610bc057610bc0611978565b906000526020600020906007020160060180549050811015610c5157826001600160a01b031660038681548110610bf957610bf9611978565b90600052602060002090600702016006018281548110610c1b57610c1b611978565b6000918252602090912001546001600160a01b03161415610c3f5760019150610c51565b80610c498161198e565b915050610bad565b508015610ca05760405162461bcd60e51b815260206004820152601b60248201527f596f75206861766520616c726561647920636865636b656420696e00000000006044820152606401610357565b82610e2e5760015460408051633cba723560e11b815290516000926001600160a01b031691637974e46a916004808301926020929190829003018186803b158015610cea57600080fd5b505afa158015610cfe573d6000803e3d6000fd5b505050506040513d601f19601f82011682018060405250810190610d229190611909565b610d2d9060016119a9565b9050600160009054906101000a90046001600160a01b03166001600160a01b031663d3fc9864848360038981548110610d6857610d68611978565b90600052602060002090600702016000016040518463ffffffff1660e01b8152600401610d97939291906119c1565b600060405180830381600087803b158015610db157600080fd5b505af1158015610dc5573d6000803e3d6000fd5b5050505060038581548110610ddc57610ddc611978565b6000918252602080832060079290920290910160050180546001810182559083528183200183905591815260049091526040902080546001600160a01b0319166001600160a01b0384161790556112a8565b6000838152600460205260409020546001600160a01b0316610e925760405162461bcd60e51b815260206004820152601960248201527f496e76616c696420726566657272657220746f6b656e204944000000000000006044820152606401610357565b60015460408051633cba723560e11b815290516000926001600160a01b031691637974e46a916004808301926020929190829003018186803b158015610ed757600080fd5b505afa158015610eeb573d6000803e3d6000fd5b505050506040513d601f19601f82011682018060405250810190610f0f9190611909565b610f1a9060016119a9565b9050600160009054906101000a90046001600160a01b03166001600160a01b031663d3fc9864848360038981548110610f5557610f55611978565b90600052602060002090600702016000016040518463ffffffff1660e01b8152600401610f84939291906119c1565b600060405180830381600087803b158015610f9e57600080fd5b505af1158015610fb2573d6000803e3d6000fd5b5050505060038581548110610fc957610fc9611978565b6000918252602080832060079290920290910160050180546001810182559083528183200183905582825260049052604080822080546001600160a01b0319166001600160a01b03878116919091179091558683529082205460038054919092169291908890811061103d5761103d611978565b60009182526020822060046007929092020181015491546040516370a0823160e01b8152309281019290925291925082916001600160a01b0316906370a082319060240160206040518083038186803b15801561109957600080fd5b505afa1580156110ad573d6000803e3d6000fd5b505050506040513d601f19601f820116820180604052508101906110d19190611909565b101561112a5760405162461bcd60e51b815260206004820152602260248201527f4e6f7420656e6f7567682072657761726420746f6b656e7320617661696c61626044820152616c6560f01b6064820152608401610357565b60005460405163a9059cbb60e01b81526001600160a01b038481166004830152602482018490529091169063a9059cbb90604401602060405180830381600087803b15801561117857600080fd5b505af115801561118c573d6000803e3d6000fd5b505050506040513d601f19601f820116820180604052508101906111b09190611922565b6112115760405162461bcd60e51b815260206004820152602c60248201527f4661696c656420746f207472616e736665722072657761726420746f6b656e7360448201526b103a37903932b332b93932b960a11b6064820152608401610357565b60008681526005602052604081205461122b9060016119a9565b600088815260056020526040908190208290556001549051633fd659ed60e11b8152600481018a9052602481018390529192506001600160a01b031690637facb3da90604401600060405180830381600087803b15801561128b57600080fd5b505af115801561129f573d6000803e3d6000fd5b50505050505050505b600384815481106112bb576112bb611978565b60009182526020808320600792909202909101600601805460018101825590835291200180546001600160a01b0319166001600160a01b038416179055600380548590811061130c5761130c611978565b9060005260206000209060070201600301546000141561143657600254600380546001600160a01b039092169182916108fc918890811061134f5761134f611978565b9060005260206000209060070201600101549081150290604051600060405180830381858888f1935050505015801561138c573d6000803e3d6000fd5b506001600386815481106113a2576113a2611978565b906000526020600020906007020160020160006101000a81548160ff0219169083151502179055507f5a31f5edca5237d41a024875db1596a0ffd609862996afb3af78403ff8122b4f85600387815481106113ff576113ff611978565b906000526020600020906007020160030154604051611428929190918252602082015260400190565b60405180910390a150611471565b60016003858154811061144b5761144b611978565b9060005260206000209060070201600301600082825461146b9190611961565b90915550505b6000838152600460209081526040918290205482518781526001600160a01b038681169382019390935291168183015290517f2f71e641069baed1d7be74a43035dc5a43b192d46e5124f7bb585b292c241aad9181900360600190a150505050565b8280546114df906118ce565b90600052602060002090601f0160209004810192826115015760008555611547565b82601f1061151a57805160ff1916838001178555611547565b82800160010185558215611547579182015b8281111561154757825182559160200191906001019061152c565b506115539291506115e6565b5090565b828054828255906000526020600020908101928215611547579160200282018281111561154757825182559160200191906001019061152c565b828054828255906000526020600020908101928215611547579160200282015b8281111561154757825182546001600160a01b0319166001600160a01b039091161782556020909201916001909101906115b1565b5b8082111561155357600081556001016115e7565b60006020828403121561160d57600080fd5b5035919050565b6000815180845260005b8181101561163a5760208185018101518683018201520161161e565b8181111561164c576000602083870101525b50601f01601f19169290920160200192915050565b60a08152600061167460a0830188611614565b60208301969096525092151560408401526060830191909152608090910152919050565b634e487b7160e01b600052604160045260246000fd5b6000806000606084860312156116c357600080fd5b833567ffffffffffffffff808211156116db57600080fd5b818601915086601f8301126116ef57600080fd5b81358181111561170157611701611698565b604051601f8201601f19908116603f0116810190838211818310171561172957611729611698565b8160405282815289602084870101111561174257600080fd5b82602086016020830137600060208483010152809750505050505060208401359150604084013590509250925092565b600081518084526020808501945080840160005b838110156117ab5781516001600160a01b031687529582019590820190600101611786565b509495945050505050565b60006020808301818452808551808352604092508286019150828160051b8701018488016000805b8481101561189d57603f198a8503018652825160e0815181875261180482880182611614565b838c0151888d01528a84015115158b890152606080850151908901526080808501519089015260a080850151898303918a01919091528051808352908d019350908c01915085905b8082101561186c5783518352928c0192918c01916001919091019061184c565b505060c092830151878203888501529291506118888184611772565b988b01989650505092880192506001016117de565b50919998505050505050505050565b600080604083850312156118bf57600080fd5b50508035926020909101359150565b600181811c908216806118e257607f821691505b6020821081141561190357634e487b7160e01b600052602260045260246000fd5b50919050565b60006020828403121561191b57600080fd5b5051919050565b60006020828403121561193457600080fd5b8151801515811461194457600080fd5b9392505050565b634e487b7160e01b600052601160045260246000fd5b6000828210156119735761197361194b565b500390565b634e487b7160e01b600052603260045260246000fd5b60006000198214156119a2576119a261194b565b5060010190565b600082198211156119bc576119bc61194b565b500190565b6001600160a01b03841681526020808201849052606060408301528254600091908290600181811c90828116806119f957607f831692505b858310811415611a1757634e487b7160e01b85526022600452602485fd5b6060880183905260808801818015611a365760018114611a4757611a72565b60ff19861682528782019650611a72565b60008b81526020902060005b86811015611a6c57815484820152908501908901611a53565b83019750505b50949b9a505050505050505050505056fea2646970667358221220b8fe17c4867d3a64033efc35a1d53dfb6f5660cf2cf41f9e8d522de137fccddd64736f6c63430008090033",
  "linkReferences": {},
  "deployedLinkReferences": {}
}