{
  "_format": "hh-sol-artifact-1",
  "contractName": "L2BSTToken",
  "sourceName": "contracts/L2BSTToken.sol",
  "abi": [
    {
      "inputs": [],
      "stateMutability": "nonpayable",
      "type": "constructor"
    },
    {
      "anonymous": false,
      "inputs": [
        {
          "indexed": true,
          "internalType": "address",
          "name": "owner",
          "type": "address"
        },
        {
          "indexed": true,
          "internalType": "address",
          "name": "spender",
          "type": "address"
        },
        {
          "indexed": false,
          "internalType": "uint256",
          "name": "value",
          "type": "uint256"
        }
      ],
      "name": "Approval",
      "type": "event"
    },
    {
      "anonymous": false,
      "inputs": [
        {
          "indexed": true,
          "internalType": "address",
          "name": "dst",
          "type": "address"
        },
        {
          "indexed": false,
          "internalType": "uint256",
          "name": "wad",
          "type": "uint256"
        }
      ],
      "name": "Deposit",
      "type": "event"
    },
    {
      "anonymous": false,
      "inputs": [
        {
          "indexed": true,
          "internalType": "address",
          "name": "from",
          "type": "address"
        },
        {
          "indexed": true,
          "internalType": "address",
          "name": "to",
          "type": "address"
        },
        {
          "indexed": false,
          "internalType": "uint256",
          "name": "value",
          "type": "uint256"
        }
      ],
      "name": "Transfer",
      "type": "event"
    },
    {
      "anonymous": false,
      "inputs": [
        {
          "indexed": true,
          "internalType": "address",
          "name": "src",
          "type": "address"
        },
        {
          "indexed": false,
          "internalType": "uint256",
          "name": "wad",
          "type": "uint256"
        }
      ],
      "name": "Withdrawal",
      "type": "event"
    },
    {
      "inputs": [
        {
          "internalType": "address",
          "name": "owner",
          "type": "address"
        },
        {
          "internalType": "address",
          "name": "spender",
          "type": "address"
        }
      ],
      "name": "allowance",
      "outputs": [
        {
          "internalType": "uint256",
          "name": "",
          "type": "uint256"
        }
      ],
      "stateMutability": "view",
      "type": "function"
    },
    {
      "inputs": [
        {
          "internalType": "address",
          "name": "spender",
          "type": "address"
        },
        {
          "internalType": "uint256",
          "name": "amount",
          "type": "uint256"
        }
      ],
      "name": "approve",
      "outputs": [
        {
          "internalType": "bool",
          "name": "",
          "type": "bool"
        }
      ],
      "stateMutability": "nonpayable",
      "type": "function"
    },
    {
      "inputs": [
        {
          "internalType": "address",
          "name": "account",
          "type": "address"
        }
      ],
      "name": "balanceOf",
      "outputs": [
        {
          "internalType": "uint256",
          "name": "",
          "type": "uint256"
        }
      ],
      "stateMutability": "view",
      "type": "function"
    },
    {
      "inputs": [],
      "name": "decimals",
      "outputs": [
        {
          "internalType": "uint8",
          "name": "",
          "type": "uint8"
        }
      ],
      "stateMutability": "view",
      "type": "function"
    },
    {
      "inputs": [
        {
          "internalType": "address",
          "name": "spender",
          "type": "address"
        },
        {
          "internalType": "uint256",
          "name": "subtractedValue",
          "type": "uint256"
        }
      ],
      "name": "decreaseAllowance",
      "outputs": [
        {
          "internalType": "bool",
          "name": "",
          "type": "bool"
        }
      ],
      "stateMutability": "nonpayable",
      "type": "function"
    },
    {
      "inputs": [
        {
          "internalType": "uint256",
          "name": "amount",
          "type": "uint256"
        },
        {
          "internalType": "address",
          "name": "recipient",
          "type": "address"
        }
      ],
      "name": "deposit",
      "outputs": [],
      "stateMutability": "payable",
      "type": "function"
    },
    {
      "inputs": [
        {
          "internalType": "address",
          "name": "spender",
          "type": "address"
        },
        {
          "internalType": "uint256",
          "name": "addedValue",
          "type": "uint256"
        }
      ],
      "name": "increaseAllowance",
      "outputs": [
        {
          "internalType": "bool",
          "name": "",
          "type": "bool"
        }
      ],
      "stateMutability": "nonpayable",
      "type": "function"
    },
    {
      "inputs": [],
      "name": "name",
      "outputs": [
        {
          "internalType": "string",
          "name": "",
          "type": "string"
        }
      ],
      "stateMutability": "view",
      "type": "function"
    },
    {
      "inputs": [],
      "name": "symbol",
      "outputs": [
        {
          "internalType": "string",
          "name": "",
          "type": "string"
        }
      ],
      "stateMutability": "view",
      "type": "function"
    },
    {
      "inputs": [],
      "name": "totalSupply",
      "outputs": [
        {
          "internalType": "uint256",
          "name": "",
          "type": "uint256"
        }
      ],
      "stateMutability": "view",
      "type": "function"
    },
    {
      "inputs": [
        {
          "internalType": "address",
          "name": "recipient",
          "type": "address"
        },
        {
          "internalType": "uint256",
          "name": "amount",
          "type": "uint256"
        }
      ],
      "name": "transfer",
      "outputs": [
        {
          "internalType": "bool",
          "name": "",
          "type": "bool"
        }
      ],
      "stateMutability": "nonpayable",
      "type": "function"
    },
    {
      "inputs": [
        {
          "internalType": "address",
          "name": "sender",
          "type": "address"
        },
        {
          "internalType": "address",
          "name": "recipient",
          "type": "address"
        },
        {
          "internalType": "uint256",
          "name": "amount",
          "type": "uint256"
        }
      ],
      "name": "transferFrom",
      "outputs": [
        {
          "internalType": "bool",
          "name": "",
          "type": "bool"
        }
      ],
      "stateMutability": "nonpayable",
      "type": "function"
    },
    {
      "inputs": [
        {
          "internalType": "uint256",
          "name": "amount",
          "type": "uint256"
        }
      ],
      "name": "withdraw",
      "outputs": [],
      "stateMutability": "nonpayable",
      "type": "function"
    }
  ],
  "bytecode": "0x608060405260016008553480156200001657600080fd5b506040518060400160405280600d81526020016c2137b7b9ba19b9102a37b5b2b760991b815250604051806040016040528060038152602001621094d560ea1b815250816003908051906020019062000071929190620000b6565b50805162000087906004906020840190620000b6565b5050600980546001600160a01b03191673deaddeaddeaddeaddeaddeaddeaddeaddead11111790555062000199565b828054620000c4906200015c565b90600052602060002090601f016020900481019282620000e8576000855562000133565b82601f106200010357805160ff191683800117855562000133565b8280016001018555821562000133579182015b828111156200013357825182559160200191906001019062000116565b506200014192915062000145565b5090565b5b8082111562000141576000815560010162000146565b600181811c908216806200017157607f821691505b602082108114156200019357634e487b7160e01b600052602260045260246000fd5b50919050565b6110bc80620001a96000396000f3fe6080604052600436106100c25760003560e01c8063395093511161007f57806395d89b411161005957806395d89b4114610208578063a457c2d71461021d578063a9059cbb1461023d578063dd62ed3e1461025d57600080fd5b8063395093511461019f5780636e553f65146101bf57806370a08231146101d257600080fd5b806306fdde03146100c7578063095ea7b3146100f257806318160ddd1461012257806323b872dd146101415780632e1a7d4d14610161578063313ce56714610183575b600080fd5b3480156100d357600080fd5b506100dc61027d565b6040516100e99190610e3d565b60405180910390f35b3480156100fe57600080fd5b5061011261010d366004610eae565b61030f565b60405190151581526020016100e9565b34801561012e57600080fd5b506005545b6040519081526020016100e9565b34801561014d57600080fd5b5061011261015c366004610ed8565b61037b565b34801561016d57600080fd5b5061018161017c366004610f14565b6105ec565b005b34801561018f57600080fd5b50604051601281526020016100e9565b3480156101ab57600080fd5b506101126101ba366004610eae565b61075d565b6101816101cd366004610f2d565b610789565b3480156101de57600080fd5b506101336101ed366004610f59565b6001600160a01b031660009081526020819052604090205490565b34801561021457600080fd5b506100dc610945565b34801561022957600080fd5b50610112610238366004610eae565b610954565b34801561024957600080fd5b50610112610258366004610eae565b6109da565b34801561026957600080fd5b50610133610278366004610f7b565b610b28565b60606003805461028c90610fa5565b80601f01602080910402602001604051908101604052809291908181526020018280546102b890610fa5565b80156103055780601f106102da57610100808354040283529160200191610305565b820191906000526020600020905b8154815290600101906020018083116102e857829003601f168201915b5050505050905090565b3360008181526007602090815260408083206001600160a01b038716808552925280832085905551919290917f8c5be1e5ebec7d5bd14f71427d1e84f3dd0314c0f7b2291e5b200ac8c7c3b9259061036a9086815260200190565b60405180910390a350600192915050565b60006001600160a01b0384166103d85760405162461bcd60e51b815260206004820152601e60248201527f5472616e736665722066726f6d20746865207a65726f2061646472657373000060448201526064015b60405180910390fd5b6001600160a01b03831661042e5760405162461bcd60e51b815260206004820152601c60248201527f5472616e7366657220746f20746865207a65726f20616464726573730000000060448201526064016103cf565b6001600160a01b0384166000908152600660205260409020548211156104965760405162461bcd60e51b815260206004820152601f60248201527f5472616e7366657220616d6f756e7420657863656564732062616c616e63650060448201526064016103cf565b6001600160a01b03841660009081526007602090815260408083203384529091529020548211156105135760405162461bcd60e51b815260206004820152602160248201527f5472616e7366657220616d6f756e74206578636565647320616c6c6f77616e636044820152606560f81b60648201526084016103cf565b6001600160a01b0384166000908152600660205260408120805484929061053b908490610ff6565b90915550506001600160a01b0383166000908152600660205260408120805484929061056890849061100d565b90915550506001600160a01b0384166000908152600760209081526040808320338452909152812080548492906105a0908490610ff6565b92505081905550826001600160a01b0316846001600160a01b0316600080516020611067833981519152846040516105da91815260200190565b60405180910390a35060019392505050565b3360009081526006602052604090205481111561065f5760405162461bcd60e51b815260206004820152602b60248201527f426f6f73743372546f6b656e3a204e6f7420656e6f75676820746f6b656e732060448201526a746f20776974686472617760a81b60648201526084016103cf565b60006008548261066f9190611025565b905061067b3383610b53565b336000908152600660205260408120805484929061069a908490610ff6565b909155505060095460405163a9059cbb60e01b8152336004820152602481018390526001600160a01b039091169063a9059cbb90604401602060405180830381600087803b1580156106eb57600080fd5b505af11580156106ff573d6000803e3d6000fd5b505050506040513d601f19601f820116820180604052508101906107239190611044565b5060405182815233907f7fcf532c15f0a6db0bd6d0e038bea71d30d808c7d98cb3bf7268a95bf5081b659060200160405180910390a25050565b60003361077f8185856107708383610b28565b61077a919061100d565b610c74565b5060019392505050565b600082116107d95760405162461bcd60e51b815260206004820152601f60248201527f4d7573742073656e6420746f6b656e732067726561746572207468616e20300060448201526064016103cf565b6009546040516323b872dd60e01b8152336004820152306024820152604481018490526001600160a01b03909116906323b872dd90606401602060405180830381600087803b15801561082b57600080fd5b505af115801561083f573d6000803e3d6000fd5b505050506040513d601f19601f820116820180604052508101906108639190611044565b6108a15760405162461bcd60e51b815260206004820152600f60248201526e151c985b9cd9995c8819985a5b1959608a1b60448201526064016103cf565b6000600854836108b19190611025565b905080600560008282546108c5919061100d565b909155506108d590503382610d90565b6001600160a01b038216600090815260066020526040812080548392906108fd90849061100d565b90915550506040518181526001600160a01b038316907fe1fffcc4923d04b559f4d29a8bfc6cda04eb5b0d3c460751c2402c5c5cc9109c9060200160405180910390a2505050565b60606004805461028c90610fa5565b600033816109628286610b28565b9050838110156109c25760405162461bcd60e51b815260206004820152602560248201527f45524332303a2064656372656173656420616c6c6f77616e63652062656c6f77604482015264207a65726f60d81b60648201526084016103cf565b6109cf8286868403610c74565b506001949350505050565b60006001600160a01b038316610a3e5760405162461bcd60e51b815260206004820152602360248201527f45524332303a207472616e7366657220746f20746865207a65726f206164647260448201526265737360e81b60648201526084016103cf565b33600090815260066020526040902054821115610aac5760405162461bcd60e51b815260206004820152602660248201527f45524332303a207472616e7366657220616d6f756e7420657863656564732062604482015265616c616e636560d01b60648201526084016103cf565b3360009081526006602052604081208054849290610acb908490610ff6565b90915550506001600160a01b03831660009081526006602052604081208054849290610af890849061100d565b90915550506040518281526001600160a01b0384169033906000805160206110678339815191529060200161036a565b6001600160a01b03918216600090815260076020908152604080832093909416825291909152205490565b6001600160a01b038216610bb35760405162461bcd60e51b815260206004820152602160248201527f45524332303a206275726e2066726f6d20746865207a65726f206164647265736044820152607360f81b60648201526084016103cf565b6001600160a01b03821660009081526020819052604090205481811015610c275760405162461bcd60e51b815260206004820152602260248201527f45524332303a206275726e20616d6f756e7420657863656564732062616c616e604482015261636560f01b60648201526084016103cf565b6001600160a01b03831660008181526020818152604080832086860390556002805487900390555185815291929160008051602061106783398151915291015b60405180910390a3505050565b6001600160a01b038316610cd65760405162461bcd60e51b8152602060048201526024808201527f45524332303a20617070726f76652066726f6d20746865207a65726f206164646044820152637265737360e01b60648201526084016103cf565b6001600160a01b038216610d375760405162461bcd60e51b815260206004820152602260248201527f45524332303a20617070726f766520746f20746865207a65726f206164647265604482015261737360f01b60648201526084016103cf565b6001600160a01b0383811660008181526001602090815260408083209487168084529482529182902085905590518481527f8c5be1e5ebec7d5bd14f71427d1e84f3dd0314c0f7b2291e5b200ac8c7c3b9259101610c67565b6001600160a01b038216610de65760405162461bcd60e51b815260206004820152601f60248201527f45524332303a206d696e7420746f20746865207a65726f20616464726573730060448201526064016103cf565b8060026000828254610df8919061100d565b90915550506001600160a01b03821660008181526020818152604080832080548601905551848152600080516020611067833981519152910160405180910390a35050565b600060208083528351808285015260005b81811015610e6a57858101830151858201604001528201610e4e565b81811115610e7c576000604083870101525b50601f01601f1916929092016040019392505050565b80356001600160a01b0381168114610ea957600080fd5b919050565b60008060408385031215610ec157600080fd5b610eca83610e92565b946020939093013593505050565b600080600060608486031215610eed57600080fd5b610ef684610e92565b9250610f0460208501610e92565b9150604084013590509250925092565b600060208284031215610f2657600080fd5b5035919050565b60008060408385031215610f4057600080fd5b82359150610f5060208401610e92565b90509250929050565b600060208284031215610f6b57600080fd5b610f7482610e92565b9392505050565b60008060408385031215610f8e57600080fd5b610f9783610e92565b9150610f5060208401610e92565b600181811c90821680610fb957607f821691505b60208210811415610fda57634e487b7160e01b600052602260045260246000fd5b50919050565b634e487b7160e01b600052601160045260246000fd5b60008282101561100857611008610fe0565b500390565b6000821982111561102057611020610fe0565b500190565b600081600019048311821515161561103f5761103f610fe0565b500290565b60006020828403121561105657600080fd5b81518015158114610f7457600080fdfeddf252ad1be2c89b69c2b068fc378daa952ba7f163c4a11628f55a4df523b3efa2646970667358221220450138151889da6f7bdd0ebc57612f8e7b3377550bac9a7c6ef2275689269f4564736f6c63430008090033",
  "linkReferences": {},
  "deployedLinkReferences": {}
}