{
  "_format": "hh-sol-artifact-1",
  "contractName": "PoapNFT",
  "sourceName": "contracts/PoapNFT.sol",
  "abi": [
    {
      "inputs": [
        {
          "internalType": "string",
          "name": "_name",
          "type": "string"
        },
        {
          "internalType": "string",
          "name": "_symbol",
          "type": "string"
        },
        {
          "internalType": "uint256",
          "name": "_freeTokens",
          "type": "uint256"
        }
      ],
      "stateMutability": "nonpayable",
      "type": "constructor"
    },
    {
      "anonymous": false,
      "inputs": [
        {
          "indexed": true,
          "internalType": "address",
          "name": "owner",
          "type": "address"
        },
        {
          "indexed": true,
          "internalType": "address",
          "name": "approved",
          "type": "address"
        },
        {
          "indexed": true,
          "internalType": "uint256",
          "name": "tokenId",
          "type": "uint256"
        }
      ],
      "name": "Approval",
      "type": "event"
    },
    {
      "anonymous": false,
      "inputs": [
        {
          "indexed": true,
          "internalType": "address",
          "name": "owner",
          "type": "address"
        },
        {
          "indexed": true,
          "internalType": "address",
          "name": "operator",
          "type": "address"
        },
        {
          "indexed": false,
          "internalType": "bool",
          "name": "approved",
          "type": "bool"
        }
      ],
      "name": "ApprovalForAll",
      "type": "event"
    },
    {
      "anonymous": false,
      "inputs": [
        {
          "indexed": true,
          "internalType": "address",
          "name": "from",
          "type": "address"
        },
        {
          "indexed": true,
          "internalType": "address",
          "name": "to",
          "type": "address"
        },
        {
          "indexed": true,
          "internalType": "uint256",
          "name": "tokenId",
          "type": "uint256"
        }
      ],
      "name": "Transfer",
      "type": "event"
    },
    {
      "inputs": [
        {
          "internalType": "uint256",
          "name": "_eventId",
          "type": "uint256"
        },
        {
          "internalType": "uint256",
          "name": "_referrals",
          "type": "uint256"
        }
      ],
      "name": "addReferral",
      "outputs": [],
      "stateMutability": "nonpayable",
      "type": "function"
    },
    {
      "inputs": [
        {
          "internalType": "address",
          "name": "to",
          "type": "address"
        },
        {
          "internalType": "uint256",
          "name": "tokenId",
          "type": "uint256"
        }
      ],
      "name": "approve",
      "outputs": [],
      "stateMutability": "nonpayable",
      "type": "function"
    },
    {
      "inputs": [
        {
          "internalType": "address",
          "name": "owner",
          "type": "address"
        }
      ],
      "name": "balanceOf",
      "outputs": [
        {
          "internalType": "uint256",
          "name": "",
          "type": "uint256"
        }
      ],
      "stateMutability": "view",
      "type": "function"
    },
    {
      "inputs": [],
      "name": "freeTokens",
      "outputs": [
        {
          "internalType": "uint256",
          "name": "",
          "type": "uint256"
        }
      ],
      "stateMutability": "view",
      "type": "function"
    },
    {
      "inputs": [
        {
          "internalType": "uint256",
          "name": "tokenId",
          "type": "uint256"
        }
      ],
      "name": "getApproved",
      "outputs": [
        {
          "internalType": "address",
          "name": "",
          "type": "address"
        }
      ],
      "stateMutability": "view",
      "type": "function"
    },
    {
      "inputs": [
        {
          "internalType": "uint256",
          "name": "eventId",
          "type": "uint256"
        }
      ],
      "name": "getEvent",
      "outputs": [
        {
          "internalType": "string",
          "name": "cid",
          "type": "string"
        },
        {
          "internalType": "uint256",
          "name": "totalReferrals",
          "type": "uint256"
        }
      ],
      "stateMutability": "view",
      "type": "function"
    },
    {
      "inputs": [],
      "name": "getLastMintedEventId",
      "outputs": [
        {
          "internalType": "uint256",
          "name": "",
          "type": "uint256"
        }
      ],
      "stateMutability": "view",
      "type": "function"
    },
    {
      "inputs": [
        {
          "internalType": "address",
          "name": "owner",
          "type": "address"
        },
        {
          "internalType": "address",
          "name": "operator",
          "type": "address"
        }
      ],
      "name": "isApprovedForAll",
      "outputs": [
        {
          "internalType": "bool",
          "name": "",
          "type": "bool"
        }
      ],
      "stateMutability": "view",
      "type": "function"
    },
    {
      "inputs": [],
      "name": "lastMintedTokenId",
      "outputs": [
        {
          "internalType": "uint256",
          "name": "",
          "type": "uint256"
        }
      ],
      "stateMutability": "view",
      "type": "function"
    },
    {
      "inputs": [
        {
          "internalType": "address",
          "name": "_to",
          "type": "address"
        },
        {
          "internalType": "uint256",
          "name": "_eventId",
          "type": "uint256"
        },
        {
          "internalType": "string",
          "name": "_cid",
          "type": "string"
        }
      ],
      "name": "mint",
      "outputs": [],
      "stateMutability": "nonpayable",
      "type": "function"
    },
    {
      "inputs": [],
      "name": "name",
      "outputs": [
        {
          "internalType": "string",
          "name": "",
          "type": "string"
        }
      ],
      "stateMutability": "view",
      "type": "function"
    },
    {
      "inputs": [
        {
          "internalType": "uint256",
          "name": "tokenId",
          "type": "uint256"
        }
      ],
      "name": "ownerOf",
      "outputs": [
        {
          "internalType": "address",
          "name": "",
          "type": "address"
        }
      ],
      "stateMutability": "view",
      "type": "function"
    },
    {
      "inputs": [
        {
          "internalType": "address",
          "name": "from",
          "type": "address"
        },
        {
          "internalType": "address",
          "name": "to",
          "type": "address"
        },
        {
          "internalType": "uint256",
          "name": "tokenId",
          "type": "uint256"
        }
      ],
      "name": "safeTransferFrom",
      "outputs": [],
      "stateMutability": "nonpayable",
      "type": "function"
    },
    {
      "inputs": [
        {
          "internalType": "address",
          "name": "from",
          "type": "address"
        },
        {
          "internalType": "address",
          "name": "to",
          "type": "address"
        },
        {
          "internalType": "uint256",
          "name": "tokenId",
          "type": "uint256"
        },
        {
          "internalType": "bytes",
          "name": "data",
          "type": "bytes"
        }
      ],
      "name": "safeTransferFrom",
      "outputs": [],
      "stateMutability": "nonpayable",
      "type": "function"
    },
    {
      "inputs": [
        {
          "internalType": "address",
          "name": "operator",
          "type": "address"
        },
        {
          "internalType": "bool",
          "name": "approved",
          "type": "bool"
        }
      ],
      "name": "setApprovalForAll",
      "outputs": [],
      "stateMutability": "nonpayable",
      "type": "function"
    },
    {
      "inputs": [
        {
          "internalType": "bytes4",
          "name": "interfaceId",
          "type": "bytes4"
        }
      ],
      "name": "supportsInterface",
      "outputs": [
        {
          "internalType": "bool",
          "name": "",
          "type": "bool"
        }
      ],
      "stateMutability": "view",
      "type": "function"
    },
    {
      "inputs": [],
      "name": "symbol",
      "outputs": [
        {
          "internalType": "string",
          "name": "",
          "type": "string"
        }
      ],
      "stateMutability": "view",
      "type": "function"
    },
    {
      "inputs": [
        {
          "internalType": "uint256",
          "name": "index",
          "type": "uint256"
        }
      ],
      "name": "tokenByIndex",
      "outputs": [
        {
          "internalType": "uint256",
          "name": "",
          "type": "uint256"
        }
      ],
      "stateMutability": "view",
      "type": "function"
    },
    {
      "inputs": [
        {
          "internalType": "address",
          "name": "owner",
          "type": "address"
        },
        {
          "internalType": "uint256",
          "name": "index",
          "type": "uint256"
        }
      ],
      "name": "tokenDetailsByIndex",
      "outputs": [
        {
          "internalType": "uint256",
          "name": "eventId",
          "type": "uint256"
        },
        {
          "internalType": "string",
          "name": "cid",
          "type": "string"
        },
        {
          "internalType": "uint256",
          "name": "totalReferrals",
          "type": "uint256"
        }
      ],
      "stateMutability": "view",
      "type": "function"
    },
    {
      "inputs": [
        {
          "internalType": "address",
          "name": "owner",
          "type": "address"
        },
        {
          "internalType": "uint256",
          "name": "index",
          "type": "uint256"
        }
      ],
      "name": "tokenOfOwnerByIndex",
      "outputs": [
        {
          "internalType": "uint256",
          "name": "",
          "type": "uint256"
        }
      ],
      "stateMutability": "view",
      "type": "function"
    },
    {
      "inputs": [
        {
          "internalType": "uint256",
          "name": "tokenId",
          "type": "uint256"
        }
      ],
      "name": "tokenURI",
      "outputs": [
        {
          "internalType": "string",
          "name": "",
          "type": "string"
        }
      ],
      "stateMutability": "view",
      "type": "function"
    },
    {
      "inputs": [
        {
          "internalType": "address",
          "name": "owner",
          "type": "address"
        }
      ],
      "name": "tokensOfOwner",
      "outputs": [
        {
          "components": [
            {
              "internalType": "uint256",
              "name": "eventId",
              "type": "uint256"
            },
            {
              "internalType": "string",
              "name": "cid",
              "type": "string"
            },
            {
              "internalType": "uint256",
              "name": "totalReferrals",
              "type": "uint256"
            }
          ],
          "internalType": "struct PoapNFT.TokenDetails[]",
          "name": "",
          "type": "tuple[]"
        }
      ],
      "stateMutability": "view",
      "type": "function"
    },
    {
      "inputs": [],
      "name": "totalMinted",
      "outputs": [
        {
          "internalType": "uint256",
          "name": "",
          "type": "uint256"
        }
      ],
      "stateMutability": "view",
      "type": "function"
    },
    {
      "inputs": [],
      "name": "totalSupply",
      "outputs": [
        {
          "internalType": "uint256",
          "name": "",
          "type": "uint256"
        }
      ],
      "stateMutability": "view",
      "type": "function"
    },
    {
      "inputs": [
        {
          "internalType": "address",
          "name": "from",
          "type": "address"
        },
        {
          "internalType": "address",
          "name": "to",
          "type": "address"
        },
        {
          "internalType": "uint256",
          "name": "tokenId",
          "type": "uint256"
        }
      ],
      "name": "transferFrom",
      "outputs": [],
      "stateMutability": "nonpayable",
      "type": "function"
    }
  ],
  "bytecode": "0x60806040523480156200001157600080fd5b50604051620022e9380380620022e98339810160408190526200003491620001e5565b8251839083906200004d90600090602085019062000072565b5080516200006390600190602084019062000072565b505050600b5550620002959050565b828054620000809062000258565b90600052602060002090601f016020900481019282620000a45760008555620000ef565b82601f10620000bf57805160ff1916838001178555620000ef565b82800160010185558215620000ef579182015b82811115620000ef578251825591602001919060010190620000d2565b50620000fd92915062000101565b5090565b5b80821115620000fd576000815560010162000102565b634e487b7160e01b600052604160045260246000fd5b600082601f8301126200014057600080fd5b81516001600160401b03808211156200015d576200015d62000118565b604051601f8301601f19908116603f0116810190828211818310171562000188576200018862000118565b81604052838152602092508683858801011115620001a557600080fd5b600091505b83821015620001c95785820183015181830184015290820190620001aa565b83821115620001db5760008385830101525b9695505050505050565b600080600060608486031215620001fb57600080fd5b83516001600160401b03808211156200021357600080fd5b62000221878388016200012e565b945060208601519150808211156200023857600080fd5b5062000247868287016200012e565b925050604084015190509250925092565b600181811c908216806200026d57607f821691505b602082108114156200028f57634e487b7160e01b600052602260045260246000fd5b50919050565b61204480620002a56000396000f3fe608060405234801561001057600080fd5b50600436106101735760003560e01c80636d1884e0116100de57806395d89b4111610097578063b88d4fde11610071578063b88d4fde1461032d578063c87b56dd14610340578063d3fc986414610353578063e985e9c51461036657600080fd5b806395d89b4114610309578063a22cb46514610311578063a2309ff81461032457600080fd5b80636d1884e0146102915780636fe8f9c5146102b257806370a08231146102bb5780637facb3da146102ce5780638462151c146102e1578063846d29931461030157600080fd5b806323b872dd1161013057806323b872dd146102295780632f745c591461023c57806342842e0e1461024f5780634f6ccce7146102625780636352211e146102755780636508b10a1461028857600080fd5b806301ffc9a71461017857806306fdde03146101a0578063081812fc146101b5578063095ea7b3146101e057806318160ddd146101f55780631d8213dd14610207575b600080fd5b61018b6101863660046119d2565b6103a2565b60405190151581526020015b60405180910390f35b6101a86103cd565b6040516101979190611a47565b6101c86101c3366004611a5a565b61045f565b6040516001600160a01b039091168152602001610197565b6101f36101ee366004611a8f565b610486565b005b600c545b604051908152602001610197565b61021a610215366004611a8f565b6105a1565b60405161019793929190611ab9565b6101f3610237366004611ae2565b6106b9565b6101f961024a366004611a8f565b6106ea565b6101f361025d366004611ae2565b610780565b6101f9610270366004611a5a565b61079b565b6101c8610283366004611a5a565b61082e565b6101f9600d5481565b6102a461029f366004611a5a565b61088e565b604051610197929190611b1e565b6101f9600b5481565b6101f96102c9366004611b40565b61098f565b6101f36102dc366004611b5b565b610a15565b6102f46102ef366004611b40565b610a8b565b6040516101979190611b7d565b600d546101f9565b6101a8610bdb565b6101f361031f366004611bfe565b610bea565b6101f9600c5481565b6101f361033b366004611cc6565b610bf9565b6101a861034e366004611a5a565b610c31565b6101f3610361366004611d42565b610ca5565b61018b610374366004611dad565b6001600160a01b03918216600090815260056020908152604080832093909416825291909152205460ff1690565b60006001600160e01b0319821663780e9d6360e01b14806103c757506103c782610d69565b92915050565b6060600080546103dc90611de0565b80601f016020809104026020016040519081016040528092919081815260200182805461040890611de0565b80156104555780601f1061042a57610100808354040283529160200191610455565b820191906000526020600020905b81548152906001019060200180831161043857829003601f168201915b5050505050905090565b600061046a82610db9565b506000908152600460205260409020546001600160a01b031690565b60006104918261082e565b9050806001600160a01b0316836001600160a01b031614156105045760405162461bcd60e51b815260206004820152602160248201527f4552433732313a20617070726f76616c20746f2063757272656e74206f776e656044820152603960f91b60648201526084015b60405180910390fd5b336001600160a01b038216148061052057506105208133610374565b6105925760405162461bcd60e51b815260206004820152603d60248201527f4552433732313a20617070726f76652063616c6c6572206973206e6f7420746f60448201527f6b656e206f776e6572206f7220617070726f76656420666f7220616c6c00000060648201526084016104fb565b61059c8383610e0c565b505050565b6000606060006105b08561098f565b84106105fe5760405162461bcd60e51b815260206004820152601960248201527f4f776e657220696e646578206f7574206f6620626f756e64730000000000000060448201526064016104fb565b61060885856106ea565b6000818152600a60205260409020600181018054929550909161062a90611de0565b80601f016020809104026020016040519081016040528092919081815260200182805461065690611de0565b80156106a35780601f10610678576101008083540402835291602001916106a3565b820191906000526020600020905b81548152906001019060200180831161068657829003601f168201915b5050505050925080600201549150509250925092565b6106c33382610e7a565b6106df5760405162461bcd60e51b81526004016104fb90611e15565b61059c838383610ef9565b60006106f58361098f565b82106107575760405162461bcd60e51b815260206004820152602b60248201527f455243373231456e756d657261626c653a206f776e657220696e646578206f7560448201526a74206f6620626f756e647360a81b60648201526084016104fb565b506001600160a01b03919091166000908152600660209081526040808320938352929052205490565b61059c83838360405180602001604052806000815250610bf9565b60006107a660085490565b82106108095760405162461bcd60e51b815260206004820152602c60248201527f455243373231456e756d657261626c653a20676c6f62616c20696e646578206f60448201526b7574206f6620626f756e647360a01b60648201526084016104fb565b6008828154811061081c5761081c611e62565b90600052602060002001549050919050565b6000818152600260205260408120546001600160a01b0316806103c75760405162461bcd60e51b8152602060048201526018602482015277115490cdcc8c4e881a5b9d985b1a59081d1bdad95b88125160421b60448201526064016104fb565b6060600061089b8361106a565b6108de5760405162461bcd60e51b8152602060048201526014602482015273115d995b9d08191bd95cc81b9bdd08195e1a5cdd60621b60448201526064016104fb565b6000838152600a602052604090206002810154600182018054909190829061090590611de0565b80601f016020809104026020016040519081016040528092919081815260200182805461093190611de0565b801561097e5780601f106109535761010080835404028352916020019161097e565b820191906000526020600020905b81548152906001019060200180831161096157829003601f168201915b505050505091509250925050915091565b60006001600160a01b0382166109f95760405162461bcd60e51b815260206004820152602960248201527f4552433732313a2061646472657373207a65726f206973206e6f7420612076616044820152683634b21037bbb732b960b91b60648201526084016104fb565b506001600160a01b031660009081526003602052604090205490565b610a1e8261106a565b610a615760405162461bcd60e51b8152602060048201526014602482015273115d995b9d08191bd95cc81b9bdd08195e1a5cdd60621b60448201526064016104fb565b6000828152600a602052604081206002018054839290610a82908490611e8e565b90915550505050565b60606000610a988361098f565b905080610af4576040805160008082526020820190925290610aec565b610ad960405180606001604052806000815260200160608152602001600081525090565b815260200190600190039081610ab55790505b509392505050565b60008167ffffffffffffffff811115610b0f57610b0f611c3a565b604051908082528060200260200182016040528015610b6457816020015b610b5160405180606001604052806000815260200160608152602001600081525090565b815260200190600190039081610b2d5790505b50905060005b82811015610aec576000806000610b8188856105a1565b925092509250604051806060016040528084815260200183815260200182815250858581518110610bb457610bb4611e62565b60200260200101819052505050508080610bcd90611ea6565b915050610b6a565b50919050565b6060600180546103dc90611de0565b610bf5338383611087565b5050565b610c033383610e7a565b610c1f5760405162461bcd60e51b81526004016104fb90611e15565b610c2b84848484611156565b50505050565b6060610c3c82610db9565b6000610c5360408051602081019091526000815290565b90506000815111610c735760405180602001604052806000815250610c9e565b80610c7d84611189565b604051602001610c8e929190611ec1565b6040516020818303038152906040525b9392505050565b610cae8261106a565b15610cf25760405162461bcd60e51b81526020600482015260146024820152734576656e7420616c72656164792065786973747360601b60448201526064016104fb565b610cfc838361121e565b6040805160608101825283815260208082018481526000838501819052868152600a8352939093208251815592518051929392610d3f9260018501920190611923565b5060409190910151600290910155600c8054906000610d5d83611ea6565b909155505050600d5550565b60006001600160e01b031982166380ac58cd60e01b1480610d9a57506001600160e01b03198216635b5e139f60e01b145b806103c757506301ffc9a760e01b6001600160e01b03198316146103c7565b610dc28161106a565b610e095760405162461bcd60e51b8152602060048201526018602482015277115490cdcc8c4e881a5b9d985b1a59081d1bdad95b88125160421b60448201526064016104fb565b50565b600081815260046020526040902080546001600160a01b0319166001600160a01b0384169081179091558190610e418261082e565b6001600160a01b03167f8c5be1e5ebec7d5bd14f71427d1e84f3dd0314c0f7b2291e5b200ac8c7c3b92560405160405180910390a45050565b600080610e868361082e565b9050806001600160a01b0316846001600160a01b03161480610ecd57506001600160a01b0380821660009081526005602090815260408083209388168352929052205460ff165b80610ef15750836001600160a01b0316610ee68461045f565b6001600160a01b0316145b949350505050565b826001600160a01b0316610f0c8261082e565b6001600160a01b031614610f325760405162461bcd60e51b81526004016104fb90611ef0565b6001600160a01b038216610f945760405162461bcd60e51b8152602060048201526024808201527f4552433732313a207472616e7366657220746f20746865207a65726f206164646044820152637265737360e01b60648201526084016104fb565b610fa18383836001611238565b826001600160a01b0316610fb48261082e565b6001600160a01b031614610fda5760405162461bcd60e51b81526004016104fb90611ef0565b600081815260046020908152604080832080546001600160a01b03199081169091556001600160a01b0387811680865260038552838620805460001901905590871680865283862080546001019055868652600290945282852080549092168417909155905184937fddf252ad1be2c89b69c2b068fc378daa952ba7f163c4a11628f55a4df523b3ef91a4505050565b6000908152600260205260409020546001600160a01b0316151590565b816001600160a01b0316836001600160a01b031614156110e95760405162461bcd60e51b815260206004820152601960248201527f4552433732313a20617070726f766520746f2063616c6c65720000000000000060448201526064016104fb565b6001600160a01b03838116600081815260056020908152604080832094871680845294825291829020805460ff191686151590811790915591519182527f17307eab39ab6107e8899845ad3d59bd9653f200f220920489ca2b5937696c31910160405180910390a3505050565b611161848484610ef9565b61116d84848484611378565b610c2b5760405162461bcd60e51b81526004016104fb90611f35565b6060600061119683611485565b600101905060008167ffffffffffffffff8111156111b6576111b6611c3a565b6040519080825280601f01601f1916602001820160405280156111e0576020820181803683370190505b5090508181016020015b600019016f181899199a1a9b1b9c1cb0b131b232b360811b600a86061a8153600a850494508461121957610aec565b6111ea565b610bf582826040518060200160405280600081525061155d565b61124484848484611590565b60018111156112b35760405162461bcd60e51b815260206004820152603560248201527f455243373231456e756d657261626c653a20636f6e7365637574697665207472604482015274185b9cd9995c9cc81b9bdd081cdd5c1c1bdc9d1959605a1b60648201526084016104fb565b816001600160a01b03851661130f5761130a81600880546000838152600960205260408120829055600182018355919091527ff3f7a9fe364faab93b216da50a3214154f22a0a2b415b23a84c8169e8b636ee30155565b611332565b836001600160a01b0316856001600160a01b031614611332576113328582611618565b6001600160a01b03841661134e57611349816116b5565b611371565b846001600160a01b0316846001600160a01b031614611371576113718482611764565b5050505050565b60006001600160a01b0384163b1561147a57604051630a85bd0160e11b81526001600160a01b0385169063150b7a02906113bc903390899088908890600401611f87565b602060405180830381600087803b1580156113d657600080fd5b505af1925050508015611406575060408051601f3d908101601f1916820190925261140391810190611fc4565b60015b611460573d808015611434576040519150601f19603f3d011682016040523d82523d6000602084013e611439565b606091505b5080516114585760405162461bcd60e51b81526004016104fb90611f35565b805181602001fd5b6001600160e01b031916630a85bd0160e11b149050610ef1565b506001949350505050565b60008072184f03e93ff9f4daa797ed6e38ed64bf6a1f0160401b83106114c45772184f03e93ff9f4daa797ed6e38ed64bf6a1f0160401b830492506040015b6d04ee2d6d415b85acef810000000083106114f0576d04ee2d6d415b85acef8100000000830492506020015b662386f26fc10000831061150e57662386f26fc10000830492506010015b6305f5e1008310611526576305f5e100830492506008015b612710831061153a57612710830492506004015b6064831061154c576064830492506002015b600a83106103c75760010192915050565b61156783836117a8565b6115746000848484611378565b61059c5760405162461bcd60e51b81526004016104fb90611f35565b6001811115610c2b576001600160a01b038416156115d6576001600160a01b038416600090815260036020526040812080548392906115d0908490611fe1565b90915550505b6001600160a01b03831615610c2b576001600160a01b0383166000908152600360205260408120805483929061160d908490611e8e565b909155505050505050565b600060016116258461098f565b61162f9190611fe1565b600083815260076020526040902054909150808214611682576001600160a01b03841660009081526006602090815260408083208584528252808320548484528184208190558352600790915290208190555b5060009182526007602090815260408084208490556001600160a01b039094168352600681528383209183525290812055565b6008546000906116c790600190611fe1565b600083815260096020526040812054600880549394509092849081106116ef576116ef611e62565b90600052602060002001549050806008838154811061171057611710611e62565b600091825260208083209091019290925582815260099091526040808220849055858252812055600880548061174857611748611ff8565b6001900381819060005260206000200160009055905550505050565b600061176f8361098f565b6001600160a01b039093166000908152600660209081526040808320868452825280832085905593825260079052919091209190915550565b6001600160a01b0382166117fe5760405162461bcd60e51b815260206004820181905260248201527f4552433732313a206d696e7420746f20746865207a65726f206164647265737360448201526064016104fb565b6118078161106a565b156118545760405162461bcd60e51b815260206004820152601c60248201527f4552433732313a20746f6b656e20616c7265616479206d696e7465640000000060448201526064016104fb565b611862600083836001611238565b61186b8161106a565b156118b85760405162461bcd60e51b815260206004820152601c60248201527f4552433732313a20746f6b656e20616c7265616479206d696e7465640000000060448201526064016104fb565b6001600160a01b038216600081815260036020908152604080832080546001019055848352600290915280822080546001600160a01b0319168417905551839291907fddf252ad1be2c89b69c2b068fc378daa952ba7f163c4a11628f55a4df523b3ef908290a45050565b82805461192f90611de0565b90600052602060002090601f0160209004810192826119515760008555611997565b82601f1061196a57805160ff1916838001178555611997565b82800160010185558215611997579182015b8281111561199757825182559160200191906001019061197c565b506119a39291506119a7565b5090565b5b808211156119a357600081556001016119a8565b6001600160e01b031981168114610e0957600080fd5b6000602082840312156119e457600080fd5b8135610c9e816119bc565b60005b83811015611a0a5781810151838201526020016119f2565b83811115610c2b5750506000910152565b60008151808452611a338160208601602086016119ef565b601f01601f19169290920160200192915050565b602081526000610c9e6020830184611a1b565b600060208284031215611a6c57600080fd5b5035919050565b80356001600160a01b0381168114611a8a57600080fd5b919050565b60008060408385031215611aa257600080fd5b611aab83611a73565b946020939093013593505050565b838152606060208201526000611ad26060830185611a1b565b9050826040830152949350505050565b600080600060608486031215611af757600080fd5b611b0084611a73565b9250611b0e60208501611a73565b9150604084013590509250925092565b604081526000611b316040830185611a1b565b90508260208301529392505050565b600060208284031215611b5257600080fd5b610c9e82611a73565b60008060408385031215611b6e57600080fd5b50508035926020909101359150565b60006020808301818452808551808352604092508286019150828160051b87010184880160005b83811015611bf057603f19898403018552815160608151855288820151818a870152611bd282870182611a1b565b92890151958901959095525094870194925090860190600101611ba4565b509098975050505050505050565b60008060408385031215611c1157600080fd5b611c1a83611a73565b915060208301358015158114611c2f57600080fd5b809150509250929050565b634e487b7160e01b600052604160045260246000fd5b600067ffffffffffffffff80841115611c6b57611c6b611c3a565b604051601f8501601f19908116603f01168101908282118183101715611c9357611c93611c3a565b81604052809350858152868686011115611cac57600080fd5b858560208301376000602087830101525050509392505050565b60008060008060808587031215611cdc57600080fd5b611ce585611a73565b9350611cf360208601611a73565b925060408501359150606085013567ffffffffffffffff811115611d1657600080fd5b8501601f81018713611d2757600080fd5b611d3687823560208401611c50565b91505092959194509250565b600080600060608486031215611d5757600080fd5b611d6084611a73565b925060208401359150604084013567ffffffffffffffff811115611d8357600080fd5b8401601f81018613611d9457600080fd5b611da386823560208401611c50565b9150509250925092565b60008060408385031215611dc057600080fd5b611dc983611a73565b9150611dd760208401611a73565b90509250929050565b600181811c90821680611df457607f821691505b60208210811415610bd557634e487b7160e01b600052602260045260246000fd5b6020808252602d908201527f4552433732313a2063616c6c6572206973206e6f7420746f6b656e206f776e6560408201526c1c881bdc88185c1c1c9bdd9959609a1b606082015260800190565b634e487b7160e01b600052603260045260246000fd5b634e487b7160e01b600052601160045260246000fd5b60008219821115611ea157611ea1611e78565b500190565b6000600019821415611eba57611eba611e78565b5060010190565b60008351611ed38184602088016119ef565b835190830190611ee78183602088016119ef565b01949350505050565b60208082526025908201527f4552433732313a207472616e736665722066726f6d20696e636f72726563742060408201526437bbb732b960d91b606082015260800190565b60208082526032908201527f4552433732313a207472616e7366657220746f206e6f6e20455243373231526560408201527131b2b4bb32b91034b6b83632b6b2b73a32b960711b606082015260800190565b6001600160a01b0385811682528416602082015260408101839052608060608201819052600090611fba90830184611a1b565b9695505050505050565b600060208284031215611fd657600080fd5b8151610c9e816119bc565b600082821015611ff357611ff3611e78565b500390565b634e487b7160e01b600052603160045260246000fdfea26469706673582212208eda10cfdef7f9e0dba5bd5d1078d41c61a68428917629794a73087d0eeeab0764736f6c63430008090033",
  "linkReferences": {},
  "deployedLinkReferences": {}
}