{
  "_format": "hh-sol-artifact-1",
  "contractName": "WETH9",
  "sourceName": "contracts/L2BSTToken.sol",
  "abi": [
    {
      "inputs": [
        {
          "internalType": "address",
          "name": "guy",
          "type": "address"
        },
        {
          "internalType": "uint256",
          "name": "wad",
          "type": "uint256"
        }
      ],
      "name": "approve",
      "outputs": [
        {
          "internalType": "bool",
          "name": "",
          "type": "bool"
        }
      ],
      "stateMutability": "nonpayable",
      "type": "function"
    },
    {
      "inputs": [],
      "name": "deposit",
      "outputs": [],
      "stateMutability": "payable",
      "type": "function"
    },
    {
      "inputs": [
        {
          "internalType": "address",
          "name": "dst",
          "type": "address"
        },
        {
          "internalType": "uint256",
          "name": "wad",
          "type": "uint256"
        }
      ],
      "name": "transfer",
      "outputs": [
        {
          "internalType": "bool",
          "name": "",
          "type": "bool"
        }
      ],
      "stateMutability": "nonpayable",
      "type": "function"
    },
    {
      "inputs": [
        {
          "internalType": "address",
          "name": "src",
          "type": "address"
        },
        {
          "internalType": "address",
          "name": "dst",
          "type": "address"
        },
        {
          "internalType": "uint256",
          "name": "wad",
          "type": "uint256"
        }
      ],
      "name": "transferFrom",
      "outputs": [
        {
          "internalType": "bool",
          "name": "",
          "type": "bool"
        }
      ],
      "stateMutability": "nonpayable",
      "type": "function"
    },
    {
      "inputs": [
        {
          "internalType": "uint256",
          "name": "wad",
          "type": "uint256"
        }
      ],
      "name": "withdraw",
      "outputs": [],
      "stateMutability": "nonpayable",
      "type": "function"
    }
  ],
  "bytecode": "0x608060405234801561001057600080fd5b5061019b806100206000396000f3fe60806040526004361061004a5760003560e01c8063095ea7b31461004f57806323b872dd146100865780632e1a7d4d146100aa578063a9059cbb1461004f578063d0e30db0146100c8575b600080fd5b34801561005b57600080fd5b5061007261006a3660046100e6565b600092915050565b604051901515815260200160405180910390f35b34801561009257600080fd5b506100726100a1366004610110565b60009392505050565b3480156100b657600080fd5b506100c86100c536600461014c565b50565b005b80356001600160a01b03811681146100e157600080fd5b919050565b600080604083850312156100f957600080fd5b610102836100ca565b946020939093013593505050565b60008060006060848603121561012557600080fd5b61012e846100ca565b925061013c602085016100ca565b9150604084013590509250925092565b60006020828403121561015e57600080fd5b503591905056fea264697066735822122012b6906a4246dd56ab7e74c23572c5d88770d420f1409ab5a50fe95849f9972564736f6c63430008090033",
  "linkReferences": {},
  "deployedLinkReferences": {}
}